:100000000C94AB000C94C8000C94C8000C94C8006D
:100010000C94C8000C94C8000C94C8000C94C80040
:100020000C94C8000C94C8000C94C8000C94C80030
:100030000C94C8000C94C8000C94C8000C94C80020
:100040000C94C8000C94C8000C94C8000C94C80010
:100050000C94C8006E616E00696E660000407A10F4
:10006000F35A00A0724E18090010A5D4E80000E869
:100070007648170000E40B54020000CA9A3B0000C7
:1000800000E1F505000080969800000040420F0056
:100090000000A08601000000102700000000E80317
:1000A000000000006400000000000A0000000000E2
:1000B0000100000000002C76D888DC674F0823DFA1
:1000C000C1DFAE59E1B1B796E5E3E453C63AE65174
:1000D000997696E8E6C28426EB898C9B62ED407C9B
:1000E0006FFCEFBC9C9F40F2BAA56FA5F490055A37
:1000F0002AF75C936B6CF9676DC11BFCE0E40D475C
:10010000FEF520E6B500D0ED902E0300943577057E
:100110000080841E080000204E0A000000C80C3336
:100120003333330F986E12831141EF8D2114893BC5
:10013000E65516CFFEE6DB18D1844B381BF77C1D45
:10014000901DA4BBE424203284725E228100C9F198
:1001500024ECA1E53D2711241FBECFE5D4E0DEBF8E
:10016000CDBF11E0A0E6B0E0E6E0F5E102C0059009
:100170000D92A432B107D9F721E0A4E2B1E001C0A9
:100180001D92A532B207E1F70E9443030C94810A45
:100190000C9400002FE78AE196E0215080409040C7
:1001A000E1F700C00000109224010895809124011D
:1001B0000895CF92DF92EF92FF92CF93DF9300D01A
:1001C00000D01F92CDB7DEB7682F792FFE01319690
:1001D00085E0DF011D928A95E9F710922401DF98EE
:1001E000D79A87E893E10197F1F700C00000DF9A02
:1001F000D7982FE107C000C0215021F484E08093FC
:10020000240183C0CF99F7CF80912401882341F046
:100210007CC000C0215029F484E0809324010BC0ED
:1002200023E3CF9BF6CF07C000C0215029F484E020
:10023000809324016AC023E3CF99F6CF80912401F3
:10024000882309F43DC061C000C0215031F45093AF
:10025000240145E031C0422F24E2CF9BF5CF20910D
:100260002401211126C09BE09A95F1F700C0CF9B95
:100270001BC0E1E0F0E0EC0FFD1FE40FF11D208159
:10028000D701C601032E04C0880F991FAA1FBB1FE8
:100290000A94D2F7822B808307C000C0215029F432
:1002A00050932401242F06C023E3CF99F6CF242FA7
:1002B00001C0242F31507AF64F5F453038F008C026
:1002C00040E0C12CD12C7601C39454E037E0C4CF78
:1002D00080912401811119C099818A81980F8B81A5
:1002E000980F8C81890F9D81891721F083E080937D
:1002F00024010BC0DE011196E62FF72FCE010596E3
:100300002D912193A817B907D9F7809124010F9057
:100310000F900F900F900F90DF91CF91FF90EF9083
:10032000DF90CF9008958F929F92AF92BF92CF921D
:10033000DF92EF92FF920F931F93CF93DF9300D042
:1003400000D0CDB7DEB78C017B0119821A821B82E7
:100350001C82CE0101960E94D900811173C06C816C
:100360008B81882384F48F7770E0782B072E000C24
:10037000880B990B0E946E0420E030E040E251ECC3
:100380000E94FA030EC070E0782B072E000C880B39
:10039000990B0E946E0420E030E040E251E40E949C
:1003A000FA03F8016083718382839383698170E02B
:1003B000762F66278A81682B072E000C880B990BF5
:1003C0000E946E0420E030E040E251E40E94FA0313
:1003D0004B015C01F7016083718382839383F80191
:1003E000C080D180E280F38020E030E040E252EC37
:1003F000C701B6010E94F503882354F020E030E0E5
:1004000040EA52E4C701B6010E941E05181624F402
:1004100082E08093240116C020E030E0A901C501EC
:10042000B4010E94F503882354F020E030E048EC4A
:1004300052E4C501B4010E941E0518161CF481E0A7
:1004400080932401809124010F900F900F900F90C2
:10045000DF91CF911F910F91FF90EF90DF90CF90A0
:10046000BF90AF909F908F90089585BB89EF90E0EB
:100470000197F1F700C0000080E288BB89EF90E0AF
:100480000197F1F700C0000018BA83EC99E00197DA
:10049000F1F700C000000895CF93C82F807F0E941D
:1004A000350289EF90E00197F1F700C000008C2F32
:1004B0008295807F0E94350289EF90E00197F1F7E5
:1004C00000C00000CF91089582E00E944C0289EFA5
:1004D00090E00197F1F700C0000088E20E944C0212
:1004E00089EF90E00197F1F700C000008CE00E94D6
:1004F0004C0289EF90E00197F1F700C0000086E020
:100500000E944C0289EF90E00197F1F700C00000D3
:1005100080E80E944C0289EF90E00197F1F700C05B
:100520000000089585BB80EA88BB89EF90E00197C1
:10053000F1F700C0000080E888BB83EC99E00197E8
:10054000F1F700C000000895CF93C82F807F0E946C
:10055000920289EF90E00197F1F700C000008C2F24
:100560008295807F0E94920289EF90E00197F1F7D7
:1005700000C00000CF9108950F931F93CF93DF9396
:100580008C01C0E0D0E009C00E94A4022196C031D5
:10059000D10519F480EC0E944C02F80181918F0181
:1005A0008111F2CFDF91CF911F910F91089561508A
:1005B00071098130910529F480E8860F0E944C0270
:1005C0000895029721F480EC860F0E944C02089552
:1005D00090BD89B988E18AB986E880BD08955D9BA0
:1005E000FECF8CB90895CF93DF93EC0188818823E7
:1005F00031F021960E94EF0289918111FBCFDF91AA
:10060000CF91089581B3886381BB82B3877C82BB1D
:100610000895CF92DF92EF92FF926B017C0120E070
:1006200030E040EC51E40E94F503882314F4939ADF
:1006300001C0939820E030E040EC51E4C701B601DE
:100640000E941E05882364F020E030E040ED51E474
:10065000C701B6010E94F503181614F0959A01C05F
:10066000959820E030E040ED51E4C701B6010E94CA
:100670001E05181614F4949A01C09498FF90EF90F8
:10068000DF90CF900895CF93DF93CDB7DEB7A897D3
:100690000FB6F894DEBF0FBECDBF8FEF84BB87BB14
:1006A0000E9402030E9464020E94CA008CE090E053
:1006B0000E94E80280E690E00E94F3020F2EF1E92A
:1006C000CF2EF0E0DF2EF02D8E010F5F1F4F0F2E8B
:1006D000F8E9EF2EF0E0FF2EF02DBE016F5D7F4FA9
:1006E000CE0185960E9493016DA17EA18FA198A550
:1006F0000E94090361E070E081E090E00E94D7026F
:1007000084E890E00E94BC0261E070E082E090E04A
:100710000E94D7020E94D600823009F44BC018F420
:10072000882331F050C0833099F18430D1F14BC02F
:1007300088A58F938FA18F938EA18F938DA18F9377
:10074000DF92CF921F930F930E94010AC8010E946B
:10075000BC028CA18F938BA18F938AA18F9389A1C7
:100760008F9388A58F938FA18F938EA18F938DA147
:100770008F93FF92EF921F930F930E94010AC8017B
:100780000E94F3020FB6F894DEBF0FBECDBF23C0A8
:1007900084EB90E00E94BC028CEB90E00E94F3029C
:1007A0001AC08DEC90E00E94BC0285ED90E00E94A2
:1007B000F30211C085EE90E00E94BC028EEE90E044
:1007C0000E94F30208C087E091E00E94BC0283E12E
:1007D00091E00E94F3029FE72AE186E091502040D9
:1007E0008040E1F700C0000078CF0E94A90408F41F
:1007F00081E008950E940E040C94E4040E94DD043C
:1008000058F00E94D60440F029F45F3F29F00C9480
:10081000CD0451110C9418050C94D3040E94F504D6
:1008200068F39923B1F3552391F3951B550BBB271F
:10083000AA2762177307840738F09F5F5F4F220F64
:10084000331F441FAA1FA9F335D00E2E3AF0E0E85B
:1008500032D091505040E695001CCAF72BD0FE2FA5
:1008600029D0660F771F881FBB1F26173707480739
:10087000AB07B0E809F0BB0B802DBF01FF279358F1
:100880005F4F3AF09E3F510578F00C94CD040C94E4
:1008900018055F3FE4F3983ED4F386957795679506
:1008A000B795F7959F5FC9F7880F911D9695879526
:1008B00097F90895E1E0660F771F881FBB1F621745
:1008C00073078407BA0720F0621B730B840BBA0B03
:1008D000EE1F88F7E0950895E89409C097FB3EF471
:1008E00090958095709561957F4F8F4F9F4F99237D
:1008F000A9F0F92F96E9BB279395F69587957795FB
:100900006795B795F111F8CFFAF4BB0F11F460FFBA
:100910001BC06F5F7F4F8F4F9F4F16C0882311F012
:1009200096E911C0772321F09EE8872F762F05C026
:10093000662371F096E8862F70E060E02AF09A95C1
:10094000660F771F881FDAF7880F9695879597F9B6
:100950000895990F0008550FAA0BE0E8FEEF161650
:100960001706E807F907C0F012161306E407F507A3
:1009700098F0621B730B840B950B39F40A2661F017
:10098000232B242B252B21F408950A2609F4A140BA
:10099000A6958FEF811D811D089597F99F6780E8C7
:1009A00070E060E008959FEF80EC089500240A94C1
:1009B0001616170618060906089500240A9412163A
:1009C0001306140605060895092E0394000C11F46D
:1009D000882352F0BB0F40F4BF2B11F460FF04C01A
:1009E0006F5F7F4F8F4F9F4F089557FD9058440F73
:1009F000551F59F05F3F71F04795880F97FB991F7E
:100A000061F09F3F79F0879508951216130614063A
:100A1000551FF2CF4695F1DF08C0161617061806C7
:100A2000991FF1CF86957105610508940895E894A2
:100A3000BB2766277727CB0197F908950E94A90461
:100A400008F48FEF0895A0E1B0E0E9E2F5E00C943E
:100A5000A0087C011B016A01FC01178216828381B8
:100A600081FF44C39E012F5F3F4F3901F7019381FE
:100A7000F10193FD859193FF81911F01882309F472
:100A800031C3853239F493FD859193FF81911F0124
:100A9000853239F4B70190E00E94C509560165011D
:100AA000E5CF10E0512C912CFFE1F915D8F08B32F5
:100AB00079F038F4803279F08332A1F4F92DF061C5
:100AC0002EC08D3261F0803369F4292D21602DC054
:100AD000392D3260932E892D8460982E2AC0E92DFD
:100AE000E86015C097FC2DC020ED280F2A3088F44F
:100AF00096FE06C03AE0139F200D1124122F19C054
:100B00008AE0589E200D1124522EE92DE0629E2E7F
:100B100010C08E3231F496FCE5C2F92DF0649F2EA0
:100B200008C08C3621F4292D2068922E02C0883608
:100B300041F4F10193FD859193FF81911F01811192
:100B4000B3CF9BEB980F933020F4992D9061805E8A
:100B500007C09BE9980F933008F066C1992D9F7EDE
:100B600096FF16E09F73992E853619F49064992E9E
:100B700008C0863621F4392F3068932E02C0111137
:100B8000115097FE07C01C3350F444244394410E87
:100B900027E00BC0183038F027E017E005C027E049
:100BA0009CE3492E02C0212F412C560184E0A80E5F
:100BB000B11CF6016081718182819381042DA301B2
:100BC0000E94D7086C01F981FC87F0FF02C0F3FF97
:100BD00006C091FC06C092FE06C000E205C00DE210
:100BE00003C00BE201C000E08C858C7019F001118C
:100BF0005AC29BC297FE10C04C0CFC85F4FF04C087
:100C00008A81813309F44A94141474F528E0241578
:100C100078F588E0482E2CC096FC2AC0812F90E001
:100C20008C159D059CF03CEFC3163FEFD30674F086
:100C3000892D8068982E0AC0E2E0F0E0EC0FFD1FDD
:100C4000E10FF11D8081803319F411501111F4CF9F
:100C500097FE0EC044244394410E812F90E0C816A5
:100C6000D9062CF41C1904C04424439401C010E09C
:100C700097FE06C01C141D0434F4C601019605C07D
:100C800085E090E002C081E090E00111019611231F
:100C900031F0212F30E02F5F3F4F820F931F252D22
:100CA00030E08217930714F4581A01C0512C892D93
:100CB000897049F4552039F0B70180E290E00E9434
:100CC000C5095A94F7CF002329F0B701802F90E08F
:100CD0000E94C50993FC09C0552039F0B70180E393
:100CE00090E00E94C5095A94F7CF97FE4CC0460188
:100CF000D7FE02C0812C912CC60188199909F301F5
:100D0000E80FF91FFE87ED87960124193109388B0A
:100D10002F87012F10E01195019511093FEF8316E0
:100D2000930629F4B7018EE290E00E94C509C81429
:100D3000D9044CF08F8598898815990524F4ED85A0
:100D4000FE85818101C080E3F1E08F1A91082D8535
:100D50003E852F5F3F4F3E872D87801691062CF0F2
:100D6000B70190E00E94C509D9CFC814D90441F455
:100D70009A81963320F4953319F43C8534FF81E34E
:100D8000B70190E04EC08A81813319F09C859F7E27
:100D90009C87B70190E00E94C509111105C094FC21
:100DA00018C085E690E017C0B7018EE290E00E947F
:100DB000C5091E5F82E001E0080FF301E80FF11D95
:100DC0008081B70190E00E94C509802F0113F3CF05
:100DD000E6CF85E490E0B7010E94C509D7FC06C0C4
:100DE000C114D10441F4EC85E4FF05C0D194C19451
:100DF000D1088DE201C08BE2B70190E00E94C509E5
:100E000080E32AE0C216D1042CF08F5FFAE0CF1AFB
:100E1000D108F7CFB70190E00E94C509B701C6011C
:100E2000C0960E94C50954C1833631F0833779F0EA
:100E3000833509F056C020C0560132E0A30EB11C24
:100E4000F6018081898301E010E0630112C0560140
:100E5000F2E0AF0EB11CF601C080D18096FE03C057
:100E6000612F70E002C06FEF7FEFC6010E94BA09E8
:100E70008C01F92DFF7714C0560122E0A20EB11C9F
:100E8000F601C080D18096FE03C0612F70E002C0E1
:100E90006FEF7FEFC6010E94AF098C01F92DF0685A
:100EA0009F2EF3FD1AC0852D90E008171907A8F4AE
:100EB000B70180E290E00E94C5095A94F4CFF60190
:100EC00097FC859197FE81916F01B70190E00E9498
:100ED000C50951105A94015011090115110579F7EE
:100EE000F7C0843611F0893661F5560197FE09C0C6
:100EF00024E0A20EB11CF601608171818281938190
:100F00000AC0F2E0AF0EB11CF60160817181072EBC
:100F1000000C880B990BF92DFF769F2E97FF09C0C7
:100F200090958095709561957F4F8F4F9F4FF0689A
:100F30009F2E2AE030E0A3010E94230AC82EC61883
:100F40003FC0092D853721F40F7E2AE030E01DC017
:100F5000097F8F3691F018F4883559F0C3C0803777
:100F600019F0883711F0BEC0006104FF09C00460A9
:100F700007C094FE08C0066006C028E030E005C047
:100F800020E130E002C020E132E0560107FF09C055
:100F900084E0A80EB11CF601608171818281938189
:100FA00008C0F2E0AF0EB11CF6016081718180E0F3
:100FB00090E0A3010E94230AC82EC6180F77902E36
:100FC00096FE0BC0092D0E7FC11650F494FE0AC088
:100FD00092FC08C0092D0E7E05C0DC2C092D03C033
:100FE000DC2C01C0D12E04FF0DC0FE01EC0DF11D63
:100FF0008081803311F4097E09C002FF06C0D394BA
:10100000D39404C0802F867809F0D39403FD11C0D7
:1010100000FF06C01C2DD51480F4150D1D190DC040
:10102000D51458F4B70180E290E00E94C509D3942A
:10103000F7CFD51410F45D1801C0512C04FF10C077
:10104000B70180E390E00E94C50902FF17C001FDCF
:1010500003C088E790E002C088E590E0B7010CC0CB
:10106000802F867859F001FF02C08BE201C080E238
:1010700007FD8DE2B70190E00E94C509C11638F462
:10108000B70180E390E00E94C5091150F7CFCA94E0
:10109000F301EC0DF11D8081B70190E00E94C509BC
:1010A000C110F5CF15C0F4E0F51560F584E0581ACD
:1010B00093FE1FC0011127C02C8523FF2AC004E521
:1010C00010E0392D3071932EF8018491811124C0E4
:1010D000552009F4E4CCB70180E290E00E94C509F4
:1010E0005A94F6CFF7018681978126C08FEF9FEF44
:1010F00023C0B70180E290E00E94C5095A945110C4
:10110000F8CFD8CF512CB701802F90E00E94C509AD
:10111000D3CF08E510E0D5CF91108052B70190E011
:101120000E94C5090F5F1F4FCFCF23E0251510F494
:1011300083E0BDCF512CC0CF6096E2E10C94BC0897
:101140002F923F924F925F926F927F928F929F92D7
:10115000AF92BF92CF92DF92EF92FF920F931F93C5
:10116000CF93DF93CDB7DEB7CA1BDB0B0FB6F89476
:10117000DEBF0FBECDBF09942A88398848885F84B6
:101180006E847D848C849B84AA84B984C884DF8027
:10119000EE80FD800C811B81AA81B981CE0FD11D0B
:1011A0000FB6F894DEBF0FBECDBFED010895283015
:1011B00008F027E03327DA01990F311D87FD916090
:1011C00000966105710539F432602E5F3D9330E37E
:1011D0002A95E1F708959F3F30F080387105610549
:1011E00009F03C5F3C5F3D93913008F08068911DB1
:1011F000DF93CF931F930F93FF92EF92192F987F56
:101200009695E92F96959695E90FFF27EA54FF4F9B
:1012100099273327EE24FF24A701E70105900894BE
:10122000079428F4360FE71EF81E491F511D660F5C
:10123000771F881F991F0694A1F70590079428F43B
:10124000E70EF81E491F561FC11D770F881F991FF3
:10125000661F0694A1F70590079428F4F80E491F1D
:10126000561FC71FD11D880F991F661F771F069431
:10127000A1F70590079420F4490F561FC71FD81FE8
:10128000990F661F771F881F0694A9F78491109500
:10129000177041F0D695C79557954795F794E79401
:1012A0001A95C1F7ECE5F0E0689415901591359129
:1012B0006591959105907FE27395E118F10A430BD2
:1012C000560BC90BD009C0F7E10CF11E431F561F86
:1012D000C91FD01D7EF4703311F48A95E6CFE894CF
:1012E000015030F0080F0AF40027021708F4202FED
:1012F0002395022F7A3328F079E37D932A95E9F735
:1013000010C07D932A9589F6069497956795379531
:1013100017951794E118F10A430B560BC90BD00926
:1013200098F023957E9173957A3308F070E37C935F
:101330002013B8F77E9170617D9330F0839571E34F
:101340007D9370E32A95E1F71124EF90FF900F91C0
:101350001F91CF91DF91992787FD90950895FC010A
:101360000590615070400110D8F7809590958E0FD0
:101370009F1F0895FC016150704001900110D8F743
:10138000809590958E0F9F1F08950F931F93CF9375
:10139000DF93FB01238121FD03C08FEF9FEF2CC062
:1013A00022FF16C046815781248135814217530799
:1013B00044F4A081B1819D012F5F3F4F3183208391
:1013C0008C93268137812F5F3F4F3783268314C04C
:1013D0008B01EC01FB010084F185E02D0995892B3F
:1013E000E1F6D80116968D919C9117970196179664
:1013F0009C938E931697CE01DF91CF911F910F9101
:101400000895AEE0B0E0E7E0FAE00C94AE080D8994
:101410001E8986E08C831A8309838FEF9FE79E8362
:101420008D83AE01475E5F4F6F89788DCE01019647
:101430000E942305EF81F885E00FF11F10822E96A0
:10144000E4E00C94CA08FA01AA27283051F12031AF
:1014500081F1E8946F936E7F6E5F7F4F8F4F9F4F48
:10146000AF4FB1E03ED0B4E03CD0670F781F891F8A
:101470009A1FA11D680F791F8A1F911DA11D6A0F58
:10148000711D811D911DA11D20D009F468943F910B
:101490002AE0269F11243019305D3193DEF6CF010A
:1014A0000895462F4770405D4193B3E00FD0C9F7D0
:1014B000F6CF462F4F70405D4A3318F0495D31FD3D
:1014C0004052419302D0A9F7EACFB4E0A695979590
:1014D000879577956795BA95C9F700976105710566
:1014E00008959B01AC010A2E0694579547953795B0
:1014F0002795BA95C9F7620F731F841F951FA01D0A
:061500000895F894FFCFEE
:1015060053797374656D2053746172746564202D0C
:101516002041546D656761313641204020314D4888
:101526007A0D0A0054656D70657261747572653A5C
:1015360000252E316620430054656D703A20252E15
:10154600316620432C2048756D3A20252E316625BC
:10155600250D0A0043204572726F72004368656369
:101566006B73756D204572726F720D0A00542045BB
:1015760072726F720054696D656F75742045727270
:101586006F720D0A005452204572726F72005465D4
:101596006D7065726174757265205265616420456F
:1015A60072726F720D0A00556E6B6E6F776E204504
:1015B600727200556E6B6E6F776E204572726F7227
:0415C6000D0A00000A
:00000001FF
