:100000000C942A000C9447000C9447000C94470071
:100010000C9447000C9447000C9447000C94470044
:100020000C9447000C9447000C9447000C94470034
:100030000C9447000C9447000C9447000C94470024
:100040000C9447000C9447000C9447000C94470014
:100050000C94470011241FBECFE5D4E0DEBFCDBF16
:1000600010E0A0E6B0E0E8ECFFE002C005900D92E1
:10007000A839B107D9F720E0A8E9B0E001C01D9286
:10008000A939B207E1F70E94A6020C94E2070C948A
:1000900000002FE78AE196E0215080409040E1F790
:1000A00000C0000010929800089580919800089573
:1000B000CF92DF92EF92FF92CF93DF9300D000D0E8
:1000C0001F92CDB7DEB7682F792FFE01319685E0FC
:1000D000DF011D928A95E9F710929800DF98D79A70
:1000E00087E893E10197F1F700C00000DF9AD79805
:1000F0002FE107C000C0215021F484E080939800D4
:1001000083C0CF99F7CF80919800882341F07CC0BD
:1001100000C0215029F484E0809398000BC023E3B1
:10012000CF9BF6CF07C000C0215029F484E0809314
:1001300098006AC023E3CF99F6CF80919800882376
:1001400009F43DC061C000C0215031F450939800C3
:1001500045E031C0422F24E2CF9BF5CF209198009B
:10016000211126C09BE09A95F1F700C0CF9B1BC0E0
:10017000E1E0F0E0EC0FFD1FE40FF11D2081D7015D
:10018000C601032E04C0880F991FAA1FBB1F0A9423
:10019000D2F7822B808307C000C0215029F45093EE
:1001A0009800242F06C023E3CF99F6CF242F01C057
:1001B000242F31507AF64F5F453038F008C040E0C8
:1001C000C12CD12C7601C39454E037E0C4CF809188
:1001D0009800811119C099818A81980F8B81980F9D
:1001E0008C81890F9D81891721F083E0809398008D
:1001F0000BC0DE011196E62FF72FCE0105962D914B
:100200002193A817B907D9F7809198000F900F9004
:100210000F900F900F90DF91CF91FF90EF90DF90B4
:10022000CF9008958F929F92AF92BF92CF92DF921C
:10023000EF92FF920F931F93CF93DF9300D000D0E4
:10024000CDB7DEB78C017B0119821A821B821C821A
:10025000CE0101960E945800811173C06C818B8180
:10026000882384F48F7770E0782B072E000C880B9E
:10027000990B0E94D60320E030E040E251EC0E944E
:100280002C030EC070E0782B072E000C880B990B06
:100290000E94D60320E030E040E251E40E942C03AB
:1002A000F8016083718382839383698170E0762F84
:1002B00066278A81682B072E000C880B990B0E94F9
:1002C000D60320E030E040E251E40E942C034B01D1
:1002D0005C01F7016083718382839383F801C0809E
:1002E000D180E280F38020E030E040E252ECC701B0
:1002F000B6010E942703882354F020E030E040EA52
:1003000052E4C701B6010E948604181624F482E064
:100310008093980016C020E030E0A901C501B40127
:100320000E942703882354F020E030E048EC52E498
:10033000C501B4010E94860418161CF481E0809364
:100340009800809198000F900F900F900F90DF9180
:10035000CF911F910F91FF90EF90DF90CF90BF90C2
:10036000AF909F908F90089585BB89EF90E00197A3
:10037000F1F700C0000080E288BB89EF90E00197B0
:10038000F1F700C0000018BA83EC99E00197F1F78B
:1003900000C000000895CF93C82F807F0E94B40151
:1003A00089EF90E00197F1F700C000008C2F829553
:1003B000807F0E94B40189EF90E00197F1F700C0BF
:1003C0000000CF91089582E00E94CB0189EF90E078
:1003D0000197F1F700C0000088E20E94CB0189EF8D
:1003E00090E00197F1F700C000008CE00E94CB0183
:1003F00089EF90E00197F1F700C0000086E00E94CD
:10040000CB0189EF90E00197F1F700C0000080E890
:100410000E94CB0189EF90E00197F1F700C0000046
:10042000089585BB80EA88BB89EF90E00197F1F7DA
:1004300000C0000080E888BB83EC99E00197F1F7E9
:1004400000C000000895CF93C82F807F0E94110242
:1004500089EF90E00197F1F700C000008C2F8295A2
:10046000807F0E94110289EF90E00197F1F700C0B0
:100470000000CF9108950F931F93CF93DF938C01CA
:10048000C0E0D0E009C00E9423022196C031D1050E
:1004900019F480EC0E94CB01F80181918F01811148
:1004A000F2CFDF91CF911F910F91089561507109A3
:1004B0008130910529F480E8860F0E94CB010895D0
:1004C000029721F480EC860F0E94CB01089581B33E
:1004D000876081BB90980895CF92DF92EF92FF9250
:1004E0006B017C0120E030E040EC51E40E942703E6
:1004F000882314F4909A01C0909820E030E040ECFA
:1005000051E4C701B6010E948604882364F020E00C
:1005100030E040ED51E4C701B6010E9427031816F0
:1005200014F0929A01C0929820E030E040ED51E43E
:10053000C701B6010E948604181614F4919A01C0EE
:100540009198FF90EF90DF90CF900895CF93DF9335
:10055000CDB7DEB768970FB6F894DEBF0FBECDBF3C
:100560008FEF84BB87BB0E9467020E94E3010E9459
:1005700049000F2EFDE6EF2EF0E0FF2EF02D8E014C
:100580000F5F1F4FBE016F5E7F4FCE0145960E94E9
:1005900012016D897E898F89988D0E946C0261E0BD
:1005A00070E081E090E00E94560280E690E00E94B8
:1005B0003B0261E070E082E090E00E9456020E94FF
:1005C0005500823089F118F4882331F032C083302D
:1005D00009F1843021F12DC020E030E040E251E407
:1005E0006D897E898F89988D0E948B040E949E035D
:1005F0007F936F93FF92EF921F930F930E94F804E3
:10060000C8010E943B020F900F900F900F900F9027
:100610000F9013C082E790E00E943B020EC08AE771
:1006200090E00E943B0209C082E890E00E943B02F9
:1006300004C08BE890E00E943B022FEF83ED90E333
:10064000215080409040E1F700C000009BCF0E9405
:10065000110408F481E008950E9440030C944C04B6
:100660000E94450458F00E943E0440F029F45F3F88
:1006700029F00C94350451110C9480040C943B0423
:100680000E945D0468F39923B1F3552391F3951B00
:10069000550BBB27AA2762177307840738F09F5FA3
:1006A0005F4F220F331F441FAA1FA9F335D00E2E10
:1006B0003AF0E0E832D091505040E695001CCAF77D
:1006C0002BD0FE2F29D0660F771F881FBB1F261740
:1006D00037074807AB07B0E809F0BB0B802DBF0117
:1006E000FF2793585F4F3AF09E3F510578F00C94E6
:1006F00035040C9480045F3FE4F3983ED4F3869570
:1007000077956795B795F7959F5FC9F7880F911D06
:100710009695879597F90895E1E0660F771F881FF2
:10072000BB1F621773078407BA0720F0621B730BA5
:10073000840BBA0BEE1F88F7E09508950E94A5037D
:100740006894B1110C94800408950E94650488F0A7
:100750009F5798F0B92F9927B751B0F0E1F0660F85
:10076000771F881F991F1AF0BA95C9F714C0B130C6
:1007700091F00E947F04B1E008950C947F04672FEC
:10078000782F8827B85F39F0B93FCCF386957795F5
:100790006795B395D9F73EF49095809570956195DE
:1007A0007F4F8F4F9F4F0895E89409C097FB3EF409
:1007B00090958095709561957F4F8F4F9F4F9923AE
:1007C000A9F0F92F96E9BB279395F695879577952C
:1007D0006795B795F111F8CFFAF4BB0F11F460FFEC
:1007E0001BC06F5F7F4F8F4F9F4F16C0882311F044
:1007F00096E911C0772321F09EE8872F762F05C058
:10080000662371F096E8862F70E060E02AF09A95F2
:10081000660F771F881FDAF7880F9695879597F9E7
:100820000895990F0008550FAA0BE0E8FEEF161681
:100830001706E807F907C0F012161306E407F507D4
:1008400098F0621B730B840B950B39F40A2661F048
:10085000232B242B252B21F408950A2609F4A140EB
:10086000A6958FEF811D811D089597F99F6780E8F8
:1008700070E060E008959FEF80EC089500240A94F2
:100880001616170618060906089500240A9412166B
:100890001306140605060895092E0394000C11F49E
:1008A000882352F0BB0F40F4BF2B11F460FF04C04B
:1008B0006F5F7F4F8F4F9F4F089557FD9058440FA4
:1008C000551F59F05F3F71F04795880F97FB991FAF
:1008D00061F09F3F79F0879508951216130614066C
:1008E000551FF2CF4695F1DF08C0161617061806F9
:1008F000991FF1CF86957105610508940895E894D4
:10090000BB2766277727CB0197F908950E9411042A
:1009100008F48FEF08950E949E040C944C040E94EA
:100920003E0438F00E94450420F0952311F00C9409
:1009300035040C943B0411240C9480040E945D0443
:1009400070F3959FC1F3950F50E0551F629FF00122
:10095000729FBB27F00DB11D639FAA27F00DB11D3B
:10096000AA1F649F6627B00DA11D661F829F2227C4
:10097000B00DA11D621F739FB00DA11D621F839F4B
:10098000A00D611D221F749F3327A00D611D231F21
:10099000849F600D211D822F762F6A2F11249F576F
:1009A00050409AF0F1F088234AF0EE0FFF1FBB1F72
:1009B000661F771F881F91505040A9F79E3F510531
:1009C00080F00C9435040C9480045F3FE4F3983E6F
:1009D000D4F3869577956795B795F795E7959F5FDB
:1009E000C1F7FE2B880F911D9695879597F908956D
:1009F000AEE0B0E0EEEFF4E00C94B9070D891E898B
:100A000086E08C831A8309838FEF9FE79E838D8313
:100A1000AE01475E5F4F6F89788DCE0101960E94CF
:100A20001A05EF81F885E00FF11F10822E96E4E0A1
:100A30000C94D507ABE0B0E0E0E2F5E00C94AB0736
:100A40006C017B018A01FC0117821682838181FF80
:100A5000CCC1CE0101963C01F6019381F70193FDD3
:100A6000859193FF81917F01882309F4BAC1853272
:100A700039F493FD859193FF81917F01853229F4AB
:100A8000B60190E00E941107E7CF912C212C312C68
:100A9000FFE1F315D8F08B3279F038F4803279F039
:100AA0008332A1F4232D20611DC08D3261F080338B
:100AB00069F4232D216016C0832D8260382EE32D2A
:100AC000E4603E2E2AC0F32DF8601DC037FC2DC017
:100AD00020ED280F2A3040F08E32B9F436FC81C167
:100AE000232D2064322E19C036FE06C08AE0989E5F
:100AF000200D1124922E11C0EAE02E9E200D11240B
:100B0000222EF32DF0623F2E08C08C3621F4832D67
:100B10008068382E02C0883641F4F70193FD859134
:100B200093FF81917F018111B3CF982F9F7D9554C1
:100B3000933028F40C5F1F4F9FE399830DC08336D9
:100B400031F0833771F0833509F059C021C0F801C5
:100B5000808189830E5F1F4F88248394912C5301D9
:100B600013C02801F2E04F0E511CF801A080B180A3
:100B700036FE03C0692D70E002C06FEF7FEFC50144
:100B80000E9406074C018201F32DFF773F2E16C00D
:100B9000280122E0420E511CF801A080B18036FEEF
:100BA00003C0692D70E002C06FEF7FEFC5010E94A6
:100BB000FB064C01F32DF0683F2E820133FC1BC075
:100BC000822D90E088169906B0F4B60180E290E09C
:100BD0000E9411072A94F4CFF50137FC859137FE66
:100BE00081915F01B60190E00E94110721102A94C3
:100BF00021E0821A91088114910471F7E8C08436CB
:100C000011F0893641F5F80137FE07C06081718126
:100C1000828193810C5F1F4F08C060817181072E14
:100C2000000C880B990B0E5F1F4FF32DFF763F2EA4
:100C300097FF09C090958095709561957F4F8F4F74
:100C40009F4FF0683F2E2AE030E0A3010E944D073D
:100C5000882E861845C0853731F4232D2F7EB22E7D
:100C60002AE030E025C0932D997FB92E8F36C1F050
:100C700018F4883579F0B5C0803719F0883721F03D
:100C8000B0C0E92FE061BE2EB4FE0DC0FB2DF460B4
:100C9000BF2E09C034FE0AC0292F2660B22E06C01E
:100CA00028E030E005C020E130E002C020E132E081
:100CB000F801B7FE07C060817181828193810C5F6A
:100CC0001F4F06C06081718180E090E00E5F1F4F72
:100CD000A3010E944D07882E8618FB2DFF773F2E1B
:100CE00036FE0DC0232D2E7FA22E891458F434FE1B
:100CF0000BC032FC09C0832D8E7EA82E05C0B82CF7
:100D0000A32C03C0B82C01C0B92CA4FE0FC0FE0157
:100D1000E80DF11D8081803321F49A2D997EA92E52
:100D200009C0A2FE06C0B394B39404C08A2D86788D
:100D300009F0B394A3FC11C0A0FE06C0B21488F45D
:100D4000280C922C9B180EC0B21460F4B60180E2FD
:100D500090E00E941107B394F7CFB21418F42B1847
:100D600002C0982C212CA4FE10C0B60180E390E0B4
:100D70000E941107A2FE17C0A1FC03C088E790E003
:100D800002C088E590E0B6010CC08A2D867859F043
:100D9000A1FE02C08BE201C080E2A7FC8DE2B60199
:100DA00090E00E941107891438F4B60180E390E0C6
:100DB0000E9411079A94F7CF8A94F301E80DF11D70
:100DC0008081B60190E00E9411078110F5CF2220AA
:100DD00009F442CEB60180E290E00E9411072A9405
:100DE000F6CFF6018681978102C08FEF9FEF2B9699
:100DF000E2E10C94C707FC010590615070400110BE
:100E0000D8F7809590958E0F9F1F0895FC01615033
:100E1000704001900110D8F7809590958E0F9F1F1C
:100E200008950F931F93CF93DF93FB01238121FD3F
:100E300003C08FEF9FEF2CC022FF16C04681578161
:100E4000248135814217530744F4A081B1819D016B
:100E50002F5F3F4F318320838C93268137812F5F13
:100E60003F4F3783268314C08B01EC01FB010084C4
:100E7000F185E02D0995892BE1F6D80116968D9123
:100E80009C911797019617969C938E931697CE0177
:100E9000DF91CF911F910F910895FA01AA27283071
:100EA00051F1203181F1E8946F936E7F6E5F7F4F37
:100EB0008F4F9F4FAF4FB1E03ED0B4E03CD0670FB3
:100EC000781F891F9A1FA11D680F791F8A1F911D06
:100ED000A11D6A0F711D811D911DA11D20D009F456
:100EE00068943F912AE0269F11243019305D319398
:100EF000DEF6CF010895462F4770405D4193B3E081
:100F00000FD0C9F7F6CF462F4F70405D4A3318F027
:100F1000495D31FD4052419302D0A9F7EACFB4E0D8
:100F2000A6959795879577956795BA95C9F7009790
:100F30006105710508959B01AC010A2E0694579531
:100F4000479537952795BA95C9F7620F731F841F88
:100F5000951FA01D08952F923F924F925F926F921E
:100F60007F928F929F92AF92BF92CF92DF92EF9239
:100F7000FF920F931F93CF93DF93CDB7DEB7CA1BBA
:100F8000DB0B0FB6F894DEBF0FBECDBF09942A88E5
:100F9000398848885F846E847D848C849B84AA848D
:100FA000B984C884DF80EE80FD800C811B81AA811A
:100FB000B981CE0FD11D0FB6F894DEBF0FBECDBFE5
:080FC000ED010895F894FFCF44
:100FC80054656D70657261747572653A00256420A8
:100FD800430043204572726F720054204572726F4D
:100FE80072005452204572726F7200556E6B6E6FAC
:080FF800776E204572720000C3
:00000001FF
